:020000040000FA
:100000000C9462000C948A000C948A000C948A0070
:100010000C948A000C948A000C948A000C948A0038
:100020000C948A000C948A000C948A000C9482042C
:100030000C948A000C948A000C948A000C948A0018
:100040000C94E0030C948A000C9450040C942A0441
:100050000C948A000C948A000C948A000C948A00F8
:100060000C948A000C948A000000000023002600F3
:10007000290000000000240027002A0000000000E2
:10008000250028002B0004040404040404040202D4
:100090000202020203030303030301020408102007
:1000A0004080010204081020010204081020000012
:1000B0000008000201000003040700000000000027
:1000C0000000830511241FBECFEFD8E0DEBFCDBFF7
:1000D00011E0A0E0B1E0E4EEF1E102C005900D9284
:1000E000AC32B107D9F722E0ACE2B1E001C01D9219
:1000F000AB30B207E1F710E0C2E6D0E004C02197D0
:10010000FE010E94EA08C136D107C9F70E944706DE
:100110000C94F0080C940000FC018081823069F09E
:1001200018F4813031F00895833059F0843061F053
:10013000089584EB8093B300089584EB8093B4001A
:10014000089584EB87BD089584EB88BD08958F9250
:100150009F92AF92BF92FF920F931F93CF93DF9323
:10016000F09007022BE02F1508F44CC020910902F3
:1001700008E512E0021B110927FD1395000F111F5E
:10018000000F111F20910802C8E8D0E0C21BD1095E
:1001900027FDD395CC0FDD1FCC0FDD1F4E010D2E9B
:1001A000000CAA08BB089801012E000C440B550B4B
:1001B000281939094A095B09DC010E94A50824EBCA
:1001C00030E040E050E00E947B08820E931EA41EA7
:1001D000B51E8C169D062CF0E801801691060CF4D5
:1001E000E4012297CC0FDD1F2FB7F8948F2D90E0FC
:1001F000FC01EE0FFF1FE80FF91FE652FE4FD283FE
:10020000C1832FBFDF91CF911F910F91FF90BF90BE
:10021000AF909F908F90089590E0FC01E255FF4FC2
:100220002491FC01E656FF4F3491FC01EA57FF4F41
:10023000E491EE23C9F0222339F0233001F1A8F430
:10024000213019F1223029F1F0E0EE0FFF1FE458C0
:10025000FF4FA591B4918FB7F894EC91611126C02E
:1002600030953E233C938FBF08952730A9F0283066
:10027000C9F0243049F7809180008F7D03C08091C0
:1002800080008F7780938000DFCF84B58F7784BD27
:10029000DBCF84B58F7DFBCF8091B0008F778093CB
:1002A000B000D2CF8091B0008F7DF9CF3E2BDACF56
:1002B000CF93DF9360E08CE00E940C0160E088E067
:1002C0000E940C01C7E0D0E060E084E00E940C01D5
:1002D0008091D90190E00C2E02C0959587950A94E3
:1002E000E2F761E080FF60E088E00E940C0161E0DD
:1002F00084E00E940C01219738F761E08CE0DF91E7
:10030000CF910C940C01CF93DF9390E0FC01E65663
:10031000FF4F24918A579F4FFC0184918823D1F08D
:1003200090E0880F991FFC01EE58FF4FA591B49102
:10033000FC01E458FF4FC591D49161110EC09FB7E5
:10034000F8948C91E22FE0958E238C932881E22300
:10035000E8839FBFDF91CF9108958FB7F894EC9118
:10036000E22BEC938FBFF6CF61E08CE00E9483011B
:1003700061E087E00E94830161E088E00E948301E0
:1003800061E084E00E9483011092D9010E9458012B
:1003900060E087E00C940C013FB7F894809138013D
:1003A00090913901A0913A01B0913B0126B5A89BEB
:1003B00005C02F3F19F00196A11DB11D3FBFBA2FF7
:1003C000A92F982F8827BC01CD01620F711D811DB7
:1003D000911D42E0660F771F881F991F4A95D1F73C
:1003E00008958F929F92AF92BF92CF92DF92EF9239
:1003F000FF924B015C010E94CC016B017C010E94C9
:10040000CC016C197D098E099F09683E73408105F6
:100410009105A8F321E0821A9108A108B10888EE9D
:10042000C80E83E0D81EE11CF11C81149104A104C4
:10043000B10429F7FF90EF90DF90CF90BF90AF907D
:100440009F908F900895AF92BF92CF92DF92EF92DC
:10045000FF920F931F93CF93DF936C017B018B016E
:10046000040F151FEB015E01AE18BF08C017D107BE
:1004700059F06991D601ED91FC910190F081E02D48
:10048000C6010995892B79F7C501DF91CF911F919D
:100490000F91FF90EF90DF90CF90BF90AF900895B5
:1004A000FC01538D448D252F30E0842F90E0821B7A
:1004B000930B541710F0CF96089501970895FC01FF
:1004C000918D828D981761F0A28DAE0FBF2FB11D57
:1004D0005D968C91928D9F5F9F73928F90E00895AF
:1004E0008FEF9FEF0895FC01918D828D981731F069
:1004F000828DE80FF11D858D90E008958FEF9FEFBD
:100500000895FC01918D228D892F90E0805C9F4F92
:10051000821B91098F73992708958CE391E00E94C3
:10052000810221E0892B09F420E0822F089580E0E8
:1005300090E0892B29F00E948D0281110C9400001B
:100540000895FC01A48DA80FB92FB11DA35ABF4F68
:100550002C91848D90E001968F739927848FA689C2
:10056000B7892C93A089B1898C91837080648C9316
:10057000938D848D981306C00288F389E02D8081C5
:100580008F7D80830895EF92FF920F931F93CF93F7
:10059000DF93EC0181E0888F9B8D8C8D98131AC0BE
:1005A000E889F989808185FF15C09FB7F894EE89A5
:1005B000FF896083E889F989808183708064808302
:1005C0009FBF81E090E0DF91CF911F910F91FF904D
:1005D000EF900895F62E0B8D10E00F5F1F4F0F73F5
:1005E0001127E02E8C8D8E110CC00FB607FCFACFB0
:1005F000E889F989808185FFF5CFCE010E94A102AB
:10060000F1CFEB8DEC0FFD2FF11DE35AFF4FF08280
:100610009FB7F8940B8FEA89FB8980818062CFCFE6
:10062000CF93DF93EC01888D8823B9F0AA89BB8929
:10063000E889F9898C9185FD03C0808186FD0DC014
:100640000FB607FCF7CF8C9185FFF2CF808185FF35
:10065000EDCFCE010E94A102E9CFDF91CF910895A5
:10066000FC018081823069F028F423E092E081303F
:1006700051F00895833019F126E090E0843019F0AC
:10068000089524E091E06230E9F0643079F161305E
:1006900009F03FC041E050E0BA0102C0660F771F89
:1006A0009A95E2F7CB0180959091D901892301C0F9
:1006B000440F2A95EAF7842B8093D90115C027E0CF
:1006C00095E0E1CF41E050E0BA0101C0660F9A9594
:1006D000EAF78091D901862B01C0440F2A95EAF7E9
:1006E000409548234093D9010C94580141E050E0D3
:1006F000FA0102C0EE0FFF1F9A95E2F7CF0101C089
:10070000440F2A95EAF7842B80959091D90189238B
:10071000D3CF0895FC0101900020E9F73197AF0194
:10072000481B590BBC018CE391E00C942302CF933E
:10073000DF930E948A03EC0182E191E00E948A0328
:100740008C0F9D1FDF91CF9108950F931F9360E051
:1007500083E10E940C0183E090E00197F1F761E0F2
:1007600083E10E940C0183E290E00197F1F7ECEA4B
:10077000F0E06491E8E9F0E0E491F0E0EE0FFF1FB3
:10078000E859FF4F8591949100E412E42FE030E0A6
:10079000462F0E943E05611571058105910529F0DE
:1007A0006F5F7F4F8F4F9F4F9F702AE330E040E095
:1007B00050E00E947B08CA01B9011F910F91089572
:1007C0001F920F920FB60F9211242F933F938F9386
:1007D0009F93AF93BF938091340190913501A09185
:1007E0003601B09137013091330123E0230F2D37CB
:1007F00058F50196A11DB11D20933301809334015A
:1008000090933501A0933601B09337018091380160
:1008100090913901A0913A01B0913B010196A11D3F
:10082000B11D8093380190933901A0933A01B093A0
:100830003B01BF91AF919F918F913F912F910F906D
:100840000FBE0F901F90189526E8230F0296A11D4A
:10085000B11DD2CF1F920F920FB60F9211242F937A
:100860003F934F935F936F937F938F939F93AF9338
:10087000BF93EF93FF938CE391E00E94A102FF915D
:10088000EF91BF91AF919F918F917F916F915F9108
:100890004F913F912F910F900FBE0F901F90189581
:1008A0001F920F920FB60F9211242F938F939F9345
:1008B000EF93FF93E0914C01F0914D018081E09125
:1008C0005201F091530182FD1BC09081809155012E
:1008D0008F5F8F7320915601821741F0E09155018F
:1008E000F0E0E45CFE4F958F80935501FF91EF910E
:1008F0009F918F912F910F900FBE0F901F90189581
:100900008081F4CF1F920F920FB60F9211242F9374
:100910003F934F935F936F937F938F939F93AF9387
:10092000BF93CF93DF93EF93FF9380912C01C091FE
:10093000FE01D0E087FF24C0109285001092840051
:1009400080912C018F5F80932C0180912C01082EC7
:10095000000C990B8C179D0724F480912C018C308E
:10096000C4F18091840090918500049680349C4964
:1009700008F47AC08091840090918500049676C036
:1009800080912C01082E000C990B8C179D07C4F642
:10099000E0912C018E2FEE0F990BFC01EE0FFF1F43
:1009A000E80FF91FE652FE4F808186FFC9CFE09124
:1009B0002C018E2FEE0F990BFC01EE0FFF1FE80F9D
:1009C000F91FE652FE4F808160E08F730E940C0198
:1009D000B7CF2091840030918500E0912C018E2FBB
:1009E000EE0F990BFC01EE0FFF1FE80FF91FE65207
:1009F000FE4F81819281820F931F90938900809393
:100A00008800E0912C018E2FEE0F990BFC01EE0F68
:100A1000FF1FE80FF91FE652FE4F808186FF11C0CD
:100A2000E0912C018E2FEE0F990BFC01EE0FFF1FB2
:100A3000E80FF91FE652FE4F808161E08F730E943C
:100A40000C01FF91EF91DF91CF91BF91AF919F91F9
:100A50008F917F916F915F914F913F912F910F9067
:100A60000FBE0F901F90189580E49CE99093890029
:100A7000809388008FEF80932C01E3CFCF92DF9299
:100A8000EF92FF920F931F93E82FF92F05C00150AB
:100A900011092109310961F1908196239417B9F365
:100AA00005C0015011092109310911F190819623E6
:100AB0009413F7CFC12CD12CE12CF12C0AC08FEF6D
:100AC000C81AD80AE80AF80A0C151D052E053F05B4
:100AD00079F080818623841791F36C2D7D2D8E2DE6
:100AE0009F2D1F910F91FF90EF90DF90CF90089571
:100AF00060E070E080E090E01F910F91FF90EF9038
:100B0000DF90CF900895CF9310923F0110923E0155
:100B100088EE93E0A0E0B0E0809340019093410123
:100B2000A0934201B093430184E091E090933D0192
:100B300080933C0185EC90E09093490180934801BB
:100B400084EC90E090934B0180934A0180EC90E01C
:100B500090934D0180934C0181EC90E090934F0174
:100B600080934E0182EC90E090935101809350016C
:100B700086EC90E0909353018093520110925501BE
:100B80001092560110925701109258018091FE0167
:100B90008C3008F078C091E0980F9093FE0180931C
:100BA000070290E0FC01EE0FFF1FE80FF91FE6526D
:100BB000FE4F88EB9BE092838183C1E0C0930502E6
:100BC000C09306020E94B4018091D901837F809373
:100BD000D9010E9458018091B00083688093B000D1
:100BE000C093B1001092B30061E08BE00E948301DA
:100BF00082E080930302C09304020E94B4018091BA
:100C0000D9018D7E8093D9010E9458018091B00056
:100C100083628093B000C093B1001092B40061E091
:100C200083E00E94830183E080930102C09302026B
:100C30000E94B4018091D9018F758093D9010E94DF
:100C4000580184B5836884BD17BC61E086E00E94CA
:100C5000830184E08093FF01C09300020E94B401ED
:100C60008091D9018E7B8093D9010E94580184B56F
:100C7000836284BD18BC61E085E00E94830110920C
:100C80000A02CF9108958FEF8093070296CFCF93FA
:100C9000DF93CDB7DEB7A1970FB6F894DEBF0FBED6
:100CA000CDBF789484B5826084BD84B5816084BDF5
:100CB00085B5826085BD85B5816085BD80916E00FA
:100CC000816080936E00109281008091810082602B
:100CD0008093810080918100816080938100809168
:100CE00080008160809380008091B1008460809357
:100CF000B1008091B00081608093B00080917A0053
:100D0000846080937A0080917A00826080937A0078
:100D100080917A00816080937A0080917A00806867
:100D200080937A001092C100E0914C01F0914D0146
:100D300082E08083E0914801F09149011082E091C6
:100D40004A01F0914B018FEC808310925401E091A5
:100D50005001F091510186E08083E0914E01F091C5
:100D60004F01808180618083E0914E01F0914F01BD
:100D7000808188608083E0914E01F0914F018081F5
:100D800080688083E0914E01F0914F0180818F7DDA
:100D9000808385E191E00E949703809107028C3067
:100DA00008F051C061E08AE00E948301809107024F
:100DB000282F30E0F901EE0FFF1FE20FF31FE6527C
:100DC000FE4F9081907C9A6090831092080210925E
:100DD00009022CE0622F0E94DE08829FB0011124DC
:100DE00030E020E0AB01420F531FFA01EE0FFF1F6E
:100DF000E40FF51FE652FE4F908196FD16C02F5F5F
:100E00003F4F2C30310571F781110FC010928000D7
:100E100082E0809381001092850010928400B19A44
:100E200080916F00826080936F00E09107028E2FA7
:100E300090E0FC01EE0FFF1FE80FF91FE652FE4F96
:100E400080818064808386E490E00E94A70061E056
:100E500083E10E94830160E082E10E94830185E0DA
:100E600092E00E948C0083E092E00E948C0081E07E
:100E700092E00E948C008FEF91E00E948C008AE04B
:100E8000882E912CA12CB12C00E010E00E94A5032B
:100E900070933201609331018BE191E00E948A03EB
:100EA000C0903101D09032010D2C000CEE08FF08EB
:100EB000F7FE53C06DE28CE391E00E94C30222274B
:100EC0003327A9012C193D094E095F0919A2CE014A
:100ED00081967C01CA01B901A50194010E94AD0867
:100EE000605DF70162937F012115310541055105D0
:100EF00089F7E114F10419F0C7010E948A0382E125
:100F000091E00E948A0380913101909132014597CE
:100F1000D4F18EE191E00E94970361E085E092E0D8
:100F20000E94300361E083E092E00E94300361E0C0
:100F300081E092E00E94300361E08FEF91E00E9437
:100F400030030115110509F4A1CF0E948D028823F9
:100F500009F49CCF0E94000099CFA701960119A225
:100F6000CE0181967C01CA01B901A50194010E94BC
:100F7000AD08605DF70162937F01211531054105E0
:100F8000510589F7B6CF86E291E00E94970364E0AD
:100F900085E092E00E94300364E083E092E00E94EA
:100FA000300364E081E092E00E94300364E08FEF60
:100FB00091E00E94300390E080E00E94A7006CE284
:100FC00071E080E090E00E94F1010E94A50370931F
:100FD000300160932F0164E670E080E090E00E94B1
:100FE000F1018AEA90E00E94A70064EF71E080E0DE
:100FF00090E00E94F1010E94A5037B0170932E01F5
:1010000060932D0164E670E080E090E00E94F101C1
:101010008AE590E00E94A7006CE271E080E090E039
:101020000E94F10180912F01909130018E159F0552
:10103000DCF462E085E092E00E94300362E083E04D
:1010400092E00E94300361E081E092E00E94300370
:1010500061E08FEF91E00E9430036EE571E080E087
:1010600090E00E94F1016DCFE816F9068CF461E082
:1010700085E092E00E94300361E083E092E00E940C
:10108000300362E081E092E00E94300362E0E1CF51
:1010900062E085E092E00E94300362E083E092E04B
:1010A0000E94300362E081E092E00E94300362E03F
:1010B0008FEF91E00E9430036CE271E080E090E0FD
:1010C0000E94F10162E085E092E00E94300362E05C
:1010D00083E092E00E94300361E081E092E00E94B0
:1010E000300361E08FEF91E00E94300364EF71E024
:1010F00080E090E0B6CF052E97FB1EF400940E948E
:10110000920857FD07D00E94AD0807FC03D04EF4AB
:101110000C94920850954095309521953F4F4F4F34
:101120005F4F089590958095709561957F4F8F4F93
:101130009F4F08950E94CF08A59F900DB49F900DDA
:10114000A49F800D911D11240895B7FF0C949A0857
:101150000E949A08821B930B0895A1E21A2EAA1BE3
:10116000BB1BFD010DC0AA1FBB1FEE1FFF1FA21757
:10117000B307E407F50720F0A21BB30BE40BF50B54
:10118000661F771F881F991F1A9469F760957095DD
:10119000809590959B01AC01BD01CF010895A29F60
:1011A000B001B39FC001A39F700D811D1124911D3B
:1011B000B29F700D811D1124911D0895991B79E036
:1011C00004C0991F961708F0961B881F7A95C9F7D7
:1011D00080950895EE0FFF1F0590F491E02D09947E
:1011E000F894FFCF00000000C30223025002100356
:1011F00081025F0273020D0A00537461727400531E
:101200003D00466F72776172640053746F70000026
:107E0000112484B714BE81FFF0D085E080938100F7
:107E100082E08093C00088E18093C10086E0809377
:107E2000C20080E18093C4008EE0C9D0259A86E02C
:107E300020E33CEF91E0309385002093840096BBD3
:107E4000B09BFECF1D9AA8958150A9F7CC24DD24C4
:107E500088248394B5E0AB2EA1E19A2EF3E0BF2EE7
:107E6000A2D0813461F49FD0082FAFD0023811F036
:107E7000013811F484E001C083E08DD089C08234E0
:107E800011F484E103C0853419F485E0A6D080C0E4
:107E9000853579F488D0E82EFF2485D0082F10E0AE
:107EA000102F00270E291F29000F111F8ED06801E7
:107EB0006FC0863521F484E090D080E0DECF843638
:107EC00009F040C070D06FD0082F6DD080E0C81688
:107ED00080E7D80618F4F601B7BEE895C0E0D1E017
:107EE00062D089930C17E1F7F0E0CF16F0E7DF06D8
:107EF00018F0F601B7BEE89568D007B600FCFDCFD4
:107F0000A601A0E0B1E02C9130E011968C91119780
:107F100090E0982F8827822B932B1296FA010C0160
:107F200087BEE89511244E5F5F4FF1E0A038BF0790
:107F300051F7F601A7BEE89507B600FCFDCF97BE46
:107F4000E89526C08437B1F42ED02DD0F82E2BD052
:107F50003CD0F601EF2C8F010F5F1F4F84911BD097
:107F6000EA94F801C1F70894C11CD11CFA94CF0C13
:107F7000D11C0EC0853739F428D08EE10CD085E9AC
:107F80000AD08FE07ACF813511F488E018D01DD067
:107F900080E101D065CF982F8091C00085FFFCCF94
:107FA0009093C60008958091C00087FFFCCF809118
:107FB000C00084FD01C0A8958091C6000895E0E648
:107FC000F0E098E1908380830895EDDF803219F02E
:107FD00088E0F5DFFFCF84E1DECF1F93182FE3DFCA
:107FE0001150E9F7F2DF1F91089580E0E8DFEE27F6
:047FF000FF270994CA
:027FFE00040479
:00000001FF
